:020000040800F2
:1000000000000220A90400087F0A00088D0A0008E9
:10001000930A0008990A00089F0A000800000000DF
:10002000000000000000000000000000A50A000819
:10003000B30A000800000000C10A0008CF0A000847
:10004000F5040008F5040008F5040008F5040008AC
:10005000F5040008F5040008F5040008F50400089C
:10006000F5040008F5040008F5040008F50400088C
:10007000F5040008F5040008F5040008F50400087C
:10008000F5040008F5040008F5040008F50400086C
:10009000F5040008F5040008F5040008F50400085C
:1000A000F5040008F5040008F5040008F50400084C
:1000B000F5040008F5040008F5040008F50400083C
:1000C000F5040008F5040008F5040008F50400082C
:1000D000F5040008F5040008F5040008F50400081C
:1000E000F5040008F5040008F5040008F50400080C
:1000F000F5040008F5040008F50400085110000894
:10010000F5040008F5040008F5040008F5040008EB
:10011000F5040008F5040008F5040008F5040008DB
:10012000F5040008F5040008F5040008F5040008CB
:10013000F5040008F5040008F5040008F5040008BB
:10014000F5040008F5040008F5040008F5040008AB
:10015000F5040008F5040008F5040008F50400089B
:10016000F5040008F5040008F5040008F50400088B
:10017000F5040008F5040008F5040008000000007C
:08018000F5040008F504000875
:1001880098BC0E0800000020D8110020D8110020CB
:10019800001B002053B94AB9002908BF00281CBF1A
:1001A8004FF0FF314FF0FF3000F078B9ADF1080C97
:1001B8006DE904CE00F006F8DDF804E0DDE902237D
:1001C80004B070472DE9F047089D0E4604468E4658
:1001D800002B4CD18A42944667D9B2FA82F252B1C6
:1001E80001FA02F3C2F1200120FA01F10CFA02FC33
:1001F80041EA030E94404FEA1C48210CBEFBF8F676
:100208001FFA8CF708FB16E341EA034306FB07F1E4
:1002180099420AD91CEB030306F1FF3080F01E81D6
:10022800994240F21B81023E63445B1AA4B2B3FBBD
:10023800F8F008FB103344EA034400FB07F7A74231
:100248000AD91CEB040400F1FF3380F00981A742AE
:1002580040F2068164440238E41B40EA064000216B
:100268001DB1D4400023C5E90043BDE8F0878B42A7
:1002780008D9002D00F0EF800021C5E900060846E6
:10028800BDE8F087B3FA83F1002949D1B34202D31C
:10029800824200F2FF80841A66EB030301209E4627
:1002A800002DE2D0C5E9004EDFE702B9FFDEB2FA61
:1002B80082F2002A40F08E80A1EB0C064FEA1C4720
:1002C8001FFA8CF30121B6FBF7FE07FB1E60260C14
:1002D80046EA004603FB0EF0B04208D91CEB0606BE
:1002E8000EF1FF3802D2B04200F2D080C646361A6C
:1002F800A4B2B6FBF7F007FB106644EA064400FB1D
:1003080003F3A34208D91CEB040400F1FF3602D220
:10031800A34200F2B8803046E41A40EA0E409FE754
:10032800C1F1200722FA07F48B40234306FA01FCA7
:1003380026FA07F420FA07F646EA0C064FEA1349AC
:1003480000FA01F8B4FBF9FE300C1FFA83FC09FB34
:100358001E4440EA04440EFB0CF0A04202FA01F2EB
:100368000AD91C190EF1FF3A80F08B80A04240F2A6
:100378008880AEF1020E1C44241AB6B2B4FBF9F020
:1003880009FB104446EA044400FB0CFCA44507D9C9
:100398001C1900F1FF3670D2A4456ED902381C44EE
:1003A80040EA0E40A0FB02E6A4EB0C04B442F4467B
:1003B800B14659D356D0002D6ED0B8EB0C0364EB80
:1003C8000904CB4004FA07F71F43CC40C5E9007481
:1003D80000214AE7C2F1200024FA00F10CFA02FCDD
:1003E80006FA02F326FA00F04FEA1C4741EA030630
:1003F800B0FBF7F11FFA8CF307FB110E300C40EA43
:100408000E4001FB03FE864504FA02F408D91CEBF2
:10041800000001F1FF3832D2864530D902396044F4
:10042800A0EB0E00B6B2B0FBF7FE07FB1E0046EAD3
:1004380000460EFB03F0B04209D91CEB06060EF18C
:10044800FF3818D2B04216D9AEF1020E6644361AF9
:100458004EEA014137E72946284606E70646E4E61C
:100468001846F9E6F045A6D2BEEB020C66EB03038C
:10047800013899469FE7C646E9E7304690E7414686
:10048800CEE7D64678E76444023845E7AEF1020E77
:1004980066442CE7084603E72946E6E6704700BFAE
:1004A800DFF830D0002103E00B4B5B584350043198
:1004B8000A480B4B42189A42F6D30A4A02E0002334
:1004C80042F8043B084B9A42F9D300F011F800F0C7
:1004D800DBF870470000022098BC0E0800000020DE
:1004E800D8110020D8110020001B0020FEE70000D2
:1004F80080B400AF164BD3F88830154A43F4700324
:10050800C2F88830134B1B68124A43F0010313608A
:10051800104B00229A600F4B1B680E4A23F084731D
:1005280023F4803313600B4B0B4A5A60094B1B684A
:10053800084A23F480231360064B0022DA60044B38
:100548004FF000629A6000BFBD465DF8047B7047BB
:1005580000ED00E0003802401030002480B487B07D
:1005680000AF00233B6100237B610223FB60002373
:10057800BB6002237B60344B9B6803F00C033B6138
:100588003B69082B11D03B69082B44D83B69002BE9
:1005980003D03B69042B04D03DE02C4B2C4A1A6055
:1005A8003DE02A4B2B4A1A6039E0274B5B689B0DCC
:1005B80003F00103BB60244B5B6803F03F037B60DF
:1005C800BB68002B0CD0234A7B68B2FBF3F31E4AAE
:1005D80052689209C2F3080202FB03F37B610BE045
:1005E8001B4A7B68B2FBF3F3174A52689209C2F3BD
:1005F800080202FB03F37B61134B5B681B0C03F0DF
:10060800030301335B00FB607A69FB68B2FBF3F319
:100618000E4A136003E00D4B0D4A1A6000BF0A4BE7
:100628009B681B0903F00F030B4AD35C3B61074B24
:100638001A683B6922FA03F3044A136000BF1C37A7
:10064800BD465DF8047B704700380240000000207A
:100658000024F40040787D017852010880B582B00A
:1006680000AF00F05DFE78607B6803F12C007B68CA
:100678005B68044A194600F0F3FC00BF0837BD4622
:1006880080BD00BF6506000880B500AF00F080F9A6
:10069800034683F00103DBB2002B07D100F088F991
:1006A800034683F00103DBB2002B01D000F0CAF946
:1006B8004BF68031942000F0F5FD034683F00103EA
:1006C800DBB2002B01D000F0BDF900215A2000F068
:1006D80097FD01215A2000F093FDFFF7BFFF00F0BE
:1006E80084F9FCE780B58CB000AF0346FB71FB7959
:1006F800002B0ED10023BB61334B1B6B324A43F0F6
:1007080008031363304B1B6B03F00803BB61BB6921
:1007180034E0FB79012B0ED100237B612A4B1B6B44
:10072800294A43F008031363274B1B6B03F00803A4
:100738007B617B6922E0FB79022B0ED100233B61B0
:10074800214B1B6B204A43F0080313631E4B1B6BA2
:1007580003F008033B613B6910E0FB79032B0DD1E3
:100768000023FB60184B1B6B174A43F00803136305
:10077800154B1B6B03F00803FB60FB68FB79134AFE
:1007880032F81330FB6101233B6201237B620223B1
:10079800BB62FB790E4A52F8233007F11C0211465E
:1007A800184602F0CDFEFB79094A52F82300FB797E
:1007B800064A32F813300022194603F071F900BFD7
:1007C8003037BD4680BD00BF003802409052010856
:1007D8000400002080B582B000AF0346FB71FB79AE
:1007E800074A52F82300FB79064A32F813300122EF
:1007F800194603F055F900BF0837BD4680BD00BF54
:10080800040000209052010880B582B000AF034672
:10081800FB71FB79074A52F82320FB79064931F826
:1008280013301946104603F054F900BF0837BD4687
:1008380080BD00BF040000209052010880B582B03E
:1008480000AF0346FB71FB79074A52F82300FB7996
:10085800064A32F813300022194603F021F900BF86
:100868000837BD4680BD00BF040000209052010833
:1008780080B594B000AF0023BB602A4B1B6C294A9B
:1008880043F080531364274B1B6C03F08053BB6009
:10089800BB6800237B60244B1B68234A43F48043D6
:1008A8001360214B1B6803F480437B607B68012342
:1008B800FB604FF480333B6102237B624FF480037B
:1008C800BB620823FB624FF4A8733B6302237B637C
:1008D8000723BB6307F10C0318460BF0CDF90F2370
:1008E800FB6302233B6400237B644FF4A053BB6487
:1008F8004FF48053FB6407F13C03052118460BF0C5
:10090800F9FB01F0D3FB034641F20102934205D102
:10091800064B1B68054A43F48073136000BF5037C9
:10092800BD4680BD0038024000700040003C0240D7
:1009380080B586B000AF00233B60134B1B6B124A97
:1009480043F008031363104B1B6B03F008033B6071
:100958003B6810237B600123BB6002233B610023BB
:10096800FB603B1D1946094802F0EAFD00221021F0
:10097800064803F095F8052001F04AFB01231846C4
:100988001837BD4680BD00BF00380240000C024049
:1009980080B500AF01F05EFA0346002B01D00023BA
:1009A80004E0FFF765FFFFF7C3FF0346184680BD65
:1009B80080B500AF0120FFF795FE0020FFF792FEFB
:1009C8000220FFF78FFE0320FFF78CFE0120FFF7C0
:1009D80035FF0020FFF732FF0220FFF72FFF03202B
:1009E800FFF7F8FE0123184680BD80B500AF03204D
:1009F800FFF70AFF4FF47A7001F00AFB00BF80BDD1
:100A080080B500AF00220B490B4812F078FE0B4965
:100A1800094812F0BCFE0A49074812F05DFE064874
:100A280012F0CFFE0346002B0CBF01230023DBB2DC
:100A3800184680BD74080020D8110020E80800205E
:100A4800C408002080B500AF0320FFF7F7FE02209E
:100A5800FFF7DAFE4FF47A7001F0DAFAF7E780B5BB
:100A680000AFFFF7EFFF00BF80BD80B500AFFFF715
:100A7800E9FF00BF80BD80B400AF00BFBD465DF890
:100A8800047B704780B400AFFEE780B400AFFEE798
:100A980080B400AFFEE780B400AFFEE780B400AFDB
:100AA80000BFBD465DF8047B704780B400AF00BF4F
:100AB800BD465DF8047B704780B400AF00BFBD46FB
:100AC8005DF8047B704780B500AF01F049FA00BFBC
:100AD80080BD80B483B000AF7860002318460C371F
:100AE800BD465DF8047B704780B588B000AF002331
:100AF800BB60254B1B6B244A43F002031363224B54
:100B08001B6B03F00203BB60BB684FF41073FB6000
:100B180012233B610223BB6100237B610423FB6139
:100B280007F10C031946194802F00AFD00237B60FF
:100B3800154B1B6C144A43F400131364124B1B6CC3
:100B480003F400137B607B680F4B1B6A0E4A43F467
:100B5800001313620C4B1B6A0B4A23F40013136235
:100B6800002200211F2001F04AFD1F2001F063FD33
:100B780000220021202001F042FD202001F05BFD31
:100B880000BF2037BD4680BD003802400004024047
:100B980080B500AF034803F037F900F005F800BF4F
:100BA80080BD00BF7414002080B582B000AF002360
:100BB8007B601C4B1B6B1B4A43F001031363194BEF
:100BC8001B6B03F001037B607B6800233B60154BC4
:100BD8001B6B144A43F004031363124B1B6B03F0A3
:100BE80004033B603B68104806F04BFF0346002BAC
:100BF80014D10D4B0D4A5A600B4B00229A600A4BD8
:100C08003322DA60084B4FF480421A61064B084AD7
:100C18001A60FFF769FF044802F0C2FF00BF0837F7
:100C2800BD4680BD0038024074140020A086010033
:100C38000054004080B586B004AF0346FB800B46E5
:100C4800BB801346FB700B4B1B68BA88F98802936C
:100C580001230193FB1C00930123074804F02CFC9B
:100C68000346002B01D0FFF793FF00BF0837BD46AE
:100C780080BD00BF140000207414002080B588B027
:100C880004AFBA601A460346FB810B46BB81134684
:100C9800FB800B4B1B68BA89F9890293FB88019387
:100CA800BB6800930123074804F006FC0346002BA9
:100CB80001D0FFF76DFF00BF1037BD4680BD00BFF4
:100CC800140000207414002080B588B004AF0346D7
:100CD8000A46FB801346BB800023FB730B4B1B6843
:100CE800BA88F98802930123019307F10F0300934F
:100CF8000123074804F0DAFC0346002B01D0FFF774
:100D080047FFFB7B18461037BD4680BD1400002006
:100D18007414002080B58AB000AFF860B9607A60BA
:100D2800002387F82730FF2387F82630002387F829
:100D3800273011E097F82730214A52F82330BA6853
:100D48009A4204D197F8273087F8263008E097F8B8
:100D58002730013387F8273097F82730072BE9D950
:100D680007F1140318460BF025FE97F8263003F018
:100D78000703002B13D101237B6197F82630114A12
:100D880052F82330BB6197F826300F4A52F82330C7
:100D9800FB6107F1140318460BF02AFD0BE0012351
:100DA8007B614FF48173BB610323FB6107F114037B
:100DB80018460BF01DFD00BF2837BD4680BD00BF9B
:100DC80098520108B8520108D852010880B58CB071
:100DD80000AF786039600023BB61574B1B6C564AE3
:100DE80043F400431364544B1B6C03F40043BB618E
:100DF800BB6900237B61504B1B6B4F4A43F00403D4
:100E080013634D4B1B6B03F004037B617B69002369
:100E18003B61494B1B6B484A43F001031363464B44
:100E28001B6B03F001033B613B694FF4A053FB616B
:100E380002233B6200237B620223BB620623FB6220
:100E480007F11C0319463D4802F07AFB1023FB61A9
:100E580007F11C0319463A4802F072FB0023FB60B5
:100E6800354B1B6B344A43F004031363324B1B6B43
:100E780003F00403FB60FB688023FB610323BB6270
:100E880007F11C0319462D4802F05AFB0023BB60EA
:100E9800294B1B6B284A43F400131363264B1B6B27
:100EA80003F40013BB60BB687B681B68254A934248
:100EB80036D1254B00225A60234B40229A60224BA0
:100EC8000022DA60204B4FF480621A611E4B4FF407
:100ED80000625A611C4B4FF400529A611A4B00226F
:100EE800DA61194B4FF400321A62174B04225A6226
:100EF800154B03229A62144B0022DA62124B00222D
:100F08001A63114B114A1A607B680F4A9A630E4A9A
:100F18007B6893630C4801F067FD0B4801F0B6FC51
:100F280000220E212F2001F06AFB2F2001F083FB05
:100F380000BF3037BD4680BD00380240000802407F
:100F480000000240003C004014150020B860024038
:100F580080B582B000AF78603960204A3B68136082
:100F6800002279681E48FFF7D5FE1D4B1D4A1A60FE
:100F78001B4809F0F3FB0346002B03D10021184856
:100F8800FFF724FF164B1B68DA69154B1B6822F420
:100F98008062DA61124A7B685361114B0022DA6180
:100FA8000F4B00229A610E4B0022DA600C4B4FF473
:100FB80000721A610A4B4FF400725A60084B002203
:100FC8009A60074808F07EFC0346002B01D00023F6
:100FD80000E0012318460837BD4680BD10150020E3
:100FE800C8140020003C004080B582B000AF786093
:100FF8000B467B807B881A467968034809F07AF8A3
:1010080000BF0837BD4680BDC814002080B500AFBA
:10101800024809F0C9FA00BF80BD00BFC81400200B
:1010280080B582B000AF78607B681B68044A934241
:1010380002D1044B1B68984700BF0837BD4680BDE6
:10104800003C00401015002080B500AF034B9B6B9F
:10105800184601F033FF00BF80BD00BFC814002050
:1010680080B586B000AFF860B9607A601B4A7B68CB
:1010780013601B4AFB681360194B1B68194A1360FD
:10108800194ABB681360184B1B68184A1360174B42
:101098001B68174A934204D8144B1B685B08FB82F1
:1010A80002E04FF6FF73FB820E4B1B68FA8A11466B
:1010B8001846FFF799FF0D4B1B68FA8A52009B1AD6
:1010C8000A4A1360074B1A68FB8A5B001344054AF7
:1010D800136000BF1837BD4680BD00BF84150020CF
:1010E800741500207C15002078150020801500203C
:1010F800FDFF010080B582B000AF1B4B1B68002BC1
:1011080027D0194B1B68194A934222D9164B1B68E2
:10111800164A934204D8144B1B685B08FB8002E014
:101128004FF6FF73FB80124B1B68FA88114618466E
:10113800FFF75AFF0C4B1B68FA8852009B1A0A4AA1
:1011480013600B4B1A68FB885B001344084A136052
:1011580005E0FFF75BFF074B1B68984700BF00BF20
:101168000837BD4680BD00BF80150020FDFF010087
:101178007C1500208415002080B588B000AF786009
:1011880039603B68FB6001233B610223BB6100239C
:101198007B6107F10C031946786802F0D1F9052044
:1011A80000F036FF012318462037BD4680BD0000F9
:1011B80080B584B000AF78600023FB6011E00E4B6F
:1011C80018880E4AFB6812F8133099B20B4AFB686C
:1011D8005B0013445B781A46FFF72CFDFB6801336C
:1011E800FB60FB6840F22C429342E8D900BF00BF85
:1011F8001037BD4680BD00BF8815002018000020AC
:1012080080B584B000AF78600B46FB707B68C3F193
:101218006403CF2202FB03F30C4A82FB0312521130
:10122800DB17D31ADBB23033FB73094B1888FB7812
:10123800002B01D13D2300E03E23FA7B1946FFF73E
:10124800F9FC00BF1037BD4680BD00BF1F85EB51BC
:101258008815002080B582B000AF0346FB71FB798A
:101268001A464FF40041034802F01AFC00BF083741
:10127800BD4680BD0008024080B582B000AF03467D
:10128800FB71FB7983F00103DBB21A464FF480410E
:10129800034802F005FC00BF0837BD4680BD00BF0B
:1012A8000008024080B582B000AF03463960FB8079
:1012B800174AFB881380174A3B681360154B1B6855
:1012C80015491846FFF744FE034683F00103DBB2D5
:1012D800002B01D0002317E0FFF766FC4FF4804194
:1012E8000E48FFF749FF4FF400410C48FFF744FF51
:1012F800074B1B881846FFF75BFF0020FFF7AAFF84
:101308000020FFF7B9FF012318460837BD4680BD06
:10131800881500208C150020FD10000800080240E8
:1013280080B400AF024B1846BD465DF8047B704799
:10133800F852010880B58EB000AF78607B681B68F2
:10134800B3F1A04F57D100233B62834B1B6B824AFA
:1013580043F001031363804B1B6B03F001033B62F3
:101368003B6A4FF4C0537B620223BB620023FB62DB
:1013780003233B630A237B6307F124031946774859
:1013880002F0DEF84FF400737B620023BB62002397
:10139800FB6207F124031946704802F0D1F84FF4B4
:1013A80080637B621223BB620123FB620A237B6397
:1013B80007F124031946694802F0C2F8664B5B6BD3
:1013C800654A43F0800353630023FB61624B5B6C07
:1013D800614A43F4804353645F4B5B6C03F480437E
:1013E800FB61FB6900220321432001F008F9432037
:1013F80001F021F9ACE07B681B68594A934240F040
:10140800A7800023BB61544B1B6B534A43F0010375
:101418001363514B1B6B03F00103BB61BB690023D2
:101428007B614D4B1B6B4C4A43F0020313634A4BE1
:101438001B6B03F002037B617B6900233B61464B16
:101448001B6B454A43F004031363434B1B6B03F0C8
:1014580004033B613B6920237B620223BB620023B8
:10146800FB6203233B630A237B6307F124031946CA
:101478003A4802F065F808237B620223BB62002326
:10148800FB6203233B630A237B6307F124031946AA
:10149800324802F055F843F227437B620223BB62CD
:1014A8000023FB620A237B6307F1240319462D48B6
:1014B80002F046F801237B620223BB620023FB6231
:1014C8000A237B6307F124031946274802F038F8FA
:1014D80008237B620223BB620023FB620A237B632F
:1014E80007F124031946204802F02AF804237B62F6
:1014F8000223BB620023FB620A237B6307F12403F8
:101508001946194802F01CF80023FB60124B1B6BAC
:10151800114A43F0804313630F4B1B6B03F0804366
:10152800FB60FB680023BB600B4B1B6B0A4A43F054
:1015380000531363084B1B6B03F00053BB60BB687D
:10154800002203214D2001F05AF84D2001F073F8D4
:1015580000BF3837BD4680BD003802400000024059
:1015680000000440000402400008024080B483B038
:1015780000AF78607B681B68B3F1A04F0CD1124BA9
:101588005B6B114A23F0800353630F4B5B6C0E4A6D
:1015980023F48043536410E07B681B680B4A934232
:1015A8000BD1094B1B6B084A23F000531363064BFE
:1015B8005B6C054A23F48043536400BF0C37BD4677
:1015C8005DF8047B704700BF00380240000004400B
:1015D80080B582B000AF78607B68D3F804247B685C
:1015E80003F571731946104612F04AF900BF08371F
:1015F800BD4680BD80B582B000AF78600B46FB70F9
:101608007B68D3F80404FA7879681346DB009B1AE0
:101618009B000B4403F502731A68FB78194612F015
:101628007CF900BF0837BD4680BD80B582B000AFE9
:1016380078600B46FB707B68D3F80404FA78796805
:101648001346DB009B1A9B000B4448331A68FB784F
:10165800194612F0D3F900BF0837BD4680BD80B5E2
:1016680082B000AF78607B68D3F80434184612F073
:10167800E1FA00BF0837BD4680BD80B584B000AF31
:1016880078600123FB737B68DB68002B02D0022B98
:1016980003D005E00023FB7305E00123FB7302E0A0
:1016A8000123FB7300BF7B68D3F80434184612F09B
:1016B8004AFA7B68D3F80434FA7B1146184612F0CC
:1016C80083FA00BF1037BD4680BD80B582B000AF39
:1016D80078607B68D3F80434184612F085FA00BFA6
:1016E8000837BD4680BD80B582B000AF78607B68A2
:1016F800D3F80434184612F08CFA00BF0837BD46F8
:1017080080BD80B582B000AF78600B46FB707B6807
:10171800D3F80434FA781146184612F0B2FA00BF2A
:101728000837BD4680BD80B582B000AF78600B46F3
:10173800FB707B68D3F80434FA781146184612F027
:1017480093FA00BF0837BD4680BD80B582B000AFB0
:1017580078607B68D3F80434184612F09FFA00BF0B
:101768000837BD4680BD80B582B000AF78607B6821
:10177800D3F80434184612F09CFA00BF0837BD4667
:1017880080BD000080B582B000AF7860194B4FF083
:10179800A0421A60174B05225A60164B00221A63A2
:1017A800144B40225A61134B00221A61114B00223C
:1017B8001A62104B02229A610E4B0122DA610D4B1C
:1017C8000222DA600B4B0122DA620A4B00225A62CB
:1017D800084A7B68C2F804347B68064AC3F8982232
:1017E80004480DF097FF00F051F900231846083718
:1017F800BD4680BD9015002080B582B000AF7860EE
:101808007B68D3F8983218460EF095F800231846EE
:101818000837BD4680BD80B582B000AF78607B6870
:10182800D3F8983218460EF0B6F800231846083751
:10183800BD4680BD80B582B000AF78607B68D3F8C4
:10184800983218460EF0DAF8002318460837BD46D5
:1018580080BD80B582B000AF7860084611461A4650
:101868000346FB700B46BB7013463B807B68D3F87E
:101878009802BB783A88F9780EF07DFD0023184667
:101888000837BD4680BD000080B582B000AF7860E3
:101898000B46FB707B68D3F89832FA7811461846E5
:1018A8000EF0D1FD97F90330002B11DAFB7803F025
:1018B8007F02114B13445B011A68FB7803F07F0128
:1018C8000D4B0B445B0119460C4B13400B600EE0AB
:1018D800FA780B4B13445B011A68F978084B0B44F0
:1018E8005B01194622F4074323F0FF030B60002332
:1018F80018460837BD4680BD48200002007833FCF2
:101908005820000280B582B000AF78600B46FB70AB
:101918007B68D3F89832FA78114618460EF044FFDF
:10192800002318460837BD4680BD80B582B000AF99
:1019380078600B46FB707B68D3F89832FA781146CA
:1019480018460EF077FE002318460837BD4680BDBE
:1019580080B582B000AF78600B46FB707B68D3F827
:101968009832FA78114618460EF0C8FE0023184639
:101978000837BD4680BD80B485B000AF78600B469F
:10198800FB707B68D3F89832FB6097F90330002B23
:101998000BDAFB7803F07F02F9681346DB009B1A29
:1019A8009B000B443E331B780BE0FB7803F07F026F
:1019B800F9681346DB009B1A9B000B4403F5FF7381
:1019C8001B7818461437BD465DF8047B704780B510
:1019D80082B000AF78600B46FB707B68D3F8983212
:1019E800FA78114618460EF0A1FC0023184608376D
:1019F800BD4680BD80B584B000AFF8607A601A46F5
:101A08000B46FB7213463B81FB68D3F898023B896F
:101A1800F97A7A680EF0C4FD002318461037BD46DF
:101A280080BD80B584B000AFF8607A601A460B4676
:101A3800FB7213463B81FB68D3F898023B89F97A1D
:101A48007A680EF04AFD002318461037BD4680BD5F
:101A580080B582B000AF78600B46FB707B68D3F826
:101A68009832FA78114618460EF082FD0346184659
:101A78000837BD4680BD80B582B000AF7860786811
:101A880000F0C6FA00BF0837BD4680BD80B588B0F3
:101A980000AF3B1D00221A605A601A810023FB74B4
:101AA8000023FB8300233B8210233B820423FB8318
:101AB800FB8BBB800123BB611DE0BB695B0007F1A9
:101AC8002002134433F81C3C0F2B07D8BB695B007A
:101AD80007F120021344102223F81C2CBB695B0079
:101AE80007F12002134433F81C2CFB8B1344FB83AF
:101AF800BB690133BB61FB7CBA699A42DDDD3B8A75
:101B08001B333B82FA8B3B8A1344B3F5806F01D9B0
:101B1800FEF7A5FF3B8A19460F480FF0D8F80023B7
:101B28007B610FE07B69D9B27B695B0007F120021A
:101B3800134433F81C3C1A4607480FF081F87B69B8
:101B480001337B61FB7C7A699A42EBDD00231846FE
:101B58002037BD4680BD00BF9015002080B483B0FB
:101B680000AF03463960FB713B6812221A80034BB1
:101B780018460C37BD465DF8047B70479008002076
:101B880080B483B000AF03463960FB713B68042220
:101B98001A80034B18460C37BD465DF8047B704726
:101BA800A408002080B582B000AF03463960FB71FD
:101BB800FB79002B05D13A680749084812F05BFD0C
:101BC80004E03A680449054812F055FD024B1846EE
:101BD8000837BD4680BD00BF981900204C52010847
:101BE80080B582B000AF03463960FB713A6804499A
:101BF800044812F040FD024B18460837BD4680BD28
:101C0800981900205452010880B582B000AF0346ED
:101C18003960FB713B681A221A8000F043F8024BC6
:101C280018460837BD4680BDA808002080B582B098
:101C380000AF03463960FB71FB79002B05D13A6888
:101C48000749084812F017FD04E03A6804490548B6
:101C580012F011FD024B18460837BD4680BD00BF83
:101C6800981900205852010880B582B000AF034689
:101C78003960FB71FB79002B05D13A6807490848A0
:101C880012F0F9FC04E03A680449054812F0F3FC44
:101C9800024B18460837BD4680BD00BF9819002082
:101CA8006852010880B584B000AF0F4B1B68FB6019
:101CB8000E4B1B68BB600E4B1B687B60FA687B6829
:101CC8001344FB60FB68002B09D008220949F86817
:101CD80000F014F804220849B86800F00FF800BFB3
:101CE8001037BD4680BD00BF107AFF1F147AFF1F52
:101CF800187AFF1FAA080020BA08002080B487B00D
:101D080000AFF860B9601346FB710023FB75002330
:101D1800FB7527E0FB681B0F092B0BD8FB681B0F13
:101D2800DAB2FB7D5B001946BB680B443032D2B295
:101D38001A700AE0FB681B0FDAB2FB7D5B001946DC
:101D4800BB680B443732D2B21A70FB681B01FB60C8
:101D5800FB7D5B000133BA68134400221A70FB7DD7
:101D68000133FB75FA7DFB799A42D3D300BF00BFDC
:101D78001C37BD465DF8047B704780B485B000AF62
:101D8800F860B9607A60002318461437BD465DF8DC
:101D9800047B704780B483B000AF78600023184696
:101DA8000C37BD465DF8047B704780B485B000AF42
:101DB800F860B9601346FB71FB79012B01D0022B47
:101DC80000E000BF002318461437BD465DF8047BC9
:101DD800704780B483B000AF0346FB7100231846F8
:101DE8000C37BD465DF8047B704780B483B000AF04
:101DF8000346FB71002318460C37BD465DF8047B8B
:101E0800704780B483B000AF0346FB7100231846C7
:101E18000C37BD465DF8047B704780B400AF0023E3
:101E28001846BD465DF8047B7047000080B500AFDA
:101E38000221024811F0C9FA00BF80BDD811002064
:101E480080B500AF0121024811F0BFFA00BF80BD84
:101E5800D811002080B500AF0B4B1B680A4A43F429
:101E680000731360084B1B68074A43F480631360D0
:101E7800032000F0B9FB0F2000F042F800F032F820
:101E88000023184680BD00BF003C024080B500AF6B
:101E9800134B4FF0FF321A62114B00221A62104B9B
:101EA8004FF0FF325A620E4B00225A620C4B4FF031
:101EB800FF321A610A4B00221A61094B4FF0FF32B8
:101EC8005A61074B00225A61054B4FF0FF329A6165
:101ED800034B00229A6100F00CF80023184680BDDD
:101EE8000038024080B400AF00BFBD465DF8047BF7
:101EF800704780B400AF00BFBD465DF8047B7047F3
:101F080080B582B000AF7860124B1A68124B1B780C
:101F180019464FF47A73B3FBF1F3B2FBF3F31846A7
:101F280000F0A9FB0346002B01D001230EE07B68DB
:101F38000F2B0AD8002279684FF0FF3000F05FFBC2
:101F4800064A7B681360002300E00123184608371F
:101F5800BD4680BD00000020E4080020E008002005
:101F680080B400AF064B1B781A46064B1B68134417
:101F7800044A136000BFBD465DF8047B704700BF8C
:101F8800E4080020981A002080B400AF034B1B68B7
:101F98001846BD465DF8047B704700BF981A0020BC
:101FA80080B400AF034B1B681846BD465DF8047B40
:101FB800704700BFE008002080B584B000AF03463A
:101FC800FB710023FB730A4B1B78FA799A4209D0FC
:101FD800074AFB791370074B1B681846FFF790FFF9
:101FE8000346FB73FB7B18461037BD4680BD00BF18
:101FF800E4080020E008002080B400AF034B1B7801
:102008001846BD465DF8047B704700BFE408002011
:1020180080B584B000AF7860FFF7B6FFB8607B6822
:10202800FB60FB68B3F1FF3F05D00A4B1B781A46EB
:10203800FB681344FB6000BFFFF7A6FF0246BB68BE
:10204800D31AFA689A42F7D800BF00BF1037BD46C6
:1020580080BD00BFE408002080B400AF054B1B68BA
:10206800044A23F00203136000BFBD465DF8047BF9
:10207800704700BF10E000E080B400AF054B1B685C
:10208800044A43F00203136000BFBD465DF8047BB9
:10209800704700BF10E000E080B400AF024B184664
:1020A800BD465DF8047B70470005070180B400AFAA
:1020B800034B1B681B0C1846BD465DF8047B704734
:1020C800002004E080B400AF044B1B68C3F30B038B
:1020D8001846BD465DF8047B704700BF002004E049
:1020E80080B400AF054B5B68044A43F001035360BA
:1020F80000BFBD465DF8047B704700BF002004E0C8
:1021080080B400AF054B5B68044A23F001035360B9
:1021180000BFBD465DF8047B704700BF002004E0A7
:1021280080B400AF054B5B68044A43F00203536078
:1021380000BFBD465DF8047B704700BF002004E087
:1021480080B400AF054B5B68044A23F00203536078
:1021580000BFBD465DF8047B704700BF002004E067
:1021680080B400AF054B5B68044A43F00403536036
:1021780000BFBD465DF8047B704700BF002004E047
:1021880080B400AF054B5B68044A23F00403536036
:1021980000BFBD465DF8047B704700BF002004E027
:1021A80080B400AF034B01221A6000BFBD465DF842
:1021B800047B70470004274280B400AF034B002221
:1021C8001A6000BFBD465DF8047B704700042742D3
:1021D80080B400AF034B1B681846BD465DF8047B0E
:1021E800704700BF107AFF1F80B400AF034B1B6815
:1021F8001846BD465DF8047B704700BF147AFF1F80
:1022080080B400AF034B1B681846BD465DF8047BDD
:10221800704700BF187AFF1F80B485B000AF7860A0
:102228007B6803F00703FB600C4BDB68BB60BA6894
:102238004FF6FF031340BB60FB681A02BB681343E9
:1022480043F0BF6343F40033BB60044ABB68D36008
:1022580000BF1437BD465DF8047B704700ED00E011
:1022680080B400AF044BDB681B0A03F00703184671
:10227800BD465DF8047B704700ED00E080B483B094
:1022880000AF0346FB7197F90730002B0BDBFB7996
:1022980003F01F02074997F907305B09012000FA8C
:1022A80002F241F8232000BF0C37BD465DF8047BDD
:1022B800704700BF00E100E080B483B000AF034680
:1022C800FB7197F90730002B12DBFB7903F01F0233
:1022D8000A4997F907305B09012000FA02F2203316
:1022E80041F82320BFF34F8F00BFBFF36F8F00BFAC
:1022F80000BF0C37BD465DF8047B704700E100E085
:1023080080B483B000AF0346FB7197F90730002B08
:102318000EDB0B4A97F907305B09403352F823204C
:10232800FB7903F01F0322FA03F303F0010300E033
:10233800002318460C37BD465DF8047B704700BF84
:1023480000E100E080B483B000AF0346FB7197F969
:102358000730002B0CDBFB7903F01F02074997F9C4
:1023680007305B09012000FA02F2403341F82320CC
:1023780000BF0C37BD465DF8047B704700E100E004
:1023880080B483B000AF0346FB7197F90730002B88
:102398000CDBFB7903F01F02074997F907305B094B
:1023A800012000FA02F2603341F8232000BF0C3705
:1023B800BD465DF8047B704700E100E080B483B05F
:1023C80000AF0346FB7197F90730002B0EDB0B4A71
:1023D80097F907305B09803352F82320FB7903F023
:1023E8001F0322FA03F303F0010300E00023184659
:1023F8000C37BD465DF8047B704700BF00E100E084
:1024080080B483B000AF03463960FB7197F9073099
:10241800002B0ADB3B68DAB20C4997F90730120146
:10242800D2B20B4483F800230AE03B68DAB20849C9
:10243800FB7903F00F03043B1201D2B20B441A7666
:1024480000BF0C37BD465DF8047B704700E100E033
:1024580000ED00E080B483B000AF0346FB7197F94C
:102468000730002B09DB0D4A97F90730134493F81E
:102478000033DBB21B09DBB209E0094AFB7903F040
:102488000F03043B13441B7EDBB21B09DBB2184667
:102498000C37BD465DF8047B704700BF00E100E0E3
:1024A80000ED00E080B489B000AFF860B9607A60F0
:1024B800FB6803F00703FB61FB69C3F10703042B07
:1024C80028BF0423BB61FB690433062B02D9FB69CF
:1024D800033B00E000237B614FF0FF32BB6902FA47
:1024E80003F3DA43BB681A407B699A404FF0FF3127
:1024F8007B6901FA03F3D9437B680B401343184601
:102508002437BD465DF8047B704780B489B000AFBE
:10251800F860B9607A603B60BB6803F00703FB6151
:10252800FB69C3F10703042B28BF0423BB61FB69C4
:102538000433062B02D9FB69033B00E000237B61CF
:10254800FA687B69DA404FF0FF31BB6901FA03F39F
:10255800DB431A407B681A604FF0FF327B6902FA4E
:1025680003F3DA43FB681A403B681A6000BF24375C
:10257800BD465DF8047B704780B400AFBFF34F8F52
:1025880000BF064BDB6803F4E0620449044B1343C5
:10259800CB60BFF34F8F00BF00BFFDE700ED00E049
:1025A8000400FA0580B582B000AF78607B68013B13
:1025B800B3F1807F01D301230FE00A4A7B68013B16
:1025C80053600F214FF0FF30FFF71AFF054B002231
:1025D8009A60044B07221A60002318460837BD4644
:1025E80080BD00BF10E000E080B582B000AF786029
:1025F8007868FFF711FE00BF0837BD4680BD80B57B
:1026080086B000AF0346B9607A60FB7300237B6134
:10261800FFF726FE78617A68B9687869FFF742FFA4
:10262800024697F90F3011461846FFF7E9FE00BF3A
:102638001837BD4680BD80B582B000AF0346FB7138
:1026480097F907301846FFF719FE00BF0837BD464F
:1026580080BD80B582B000AF0346FB7197F90730A3
:102668001846FFF729FE00BF0837BD4680BD80B574
:1026780000AFFFF781FF80B582B000AF786078685F
:10268800FFF790FF034618460837BD4680BD000097
:1026980080B400AFBFF35F8F00BF074B5B6A064A89
:1026A80023F480335362054B00225A6000BFBD46B5
:1026B8005DF8047B704700BF00ED00E090ED00E09E
:1026C80080B483B000AF78600B4A7B6843F00103A5
:1026D80053600A4B5B6A094A43F480335362BFF381
:1026E8004F8F00BFBFF36F8F00BF00BF0C37BD46D1
:1026F8005DF8047B704700BF90ED00E000ED00E05E
:1027080080B483B000AF78607B685A781D4B9A60BC
:102718007B681B78002B29D01A4A7B685B68D360DA
:102728007B681B7B1A077B68DB7A1B061A437B686E
:102738009B7ADB041A437B685B7B9B041A437B68A8
:102748009B7B5B041A437B68DB7B1B041A437B6817
:102758005B7A1B021A437B681B7A5B0013437A6817
:1027680012781146074A0B43136105E0054B002216
:10277800DA60044B00221A6100BF0C37BD465DF8D1
:10278800047B704790ED00E080B500AFFFF768FD6F
:102798000346184680BD80B584B000AFB9607A6042
:1027A8003B600346FB7397F90F301846FFF752FE5C
:1027B8003B687A68B968FFF7A8FE00BF1037BD46C6
:1027C80080BD80B582B000AF0346FB7197F9073032
:1027D8001846FFF7B7FD00BF0837BD4680BD80B576
:1027E80082B000AF0346FB7197F907301846FFF730
:1027F80087FD034618460837BD4680BD80B582B0C0
:1028080000AF0346FB7197F907301846FFF7B8FD8C
:1028180000BF0837BD4680BD80B582B000AF034613
:10282800FB7197F907301846FFF7C8FD03461846AD
:102838000837BD4680BD000080B483B000AF786023
:102848007B68042B06D1094B1B68084A43F0040334
:10285800136005E0054B1B68044A23F0040313606A
:1028680000BF0C37BD465DF8047B704710E000E000
:1028780080B500AF00F002F800BF80BD80B400AFA3
:1028880000BFBD465DF8047B7047000080B586B088
:1028980000AF786000237B61FFF776FB38617B68C7
:1028A800002B01D1012399E07B68002283F83420B2
:1028B8007B68022283F835207B681B681A687B686E
:1028C8001B6822F001021A600FE0FFF75DFB024669
:1028D8003B69D31A052B08D97B6820225A657B6887
:1028E800032283F83520032378E07B681B681B6884
:1028F80003F00103002BE8D17B681B681B687B6130
:102908007A69384B13407B617B685A687B689B689F
:102918001A437B68DB681A437B681B691A437B6828
:102928005B691A437B689B691A437B68DB691A43B6
:102938007B681B6A13437A6913437B617B685B6A14
:10294800042B07D17B68DA6A7B681B6B13437A69AF
:1029580013437B617B681B687A691A607B681B6814
:102968005B697B617B6923F007037B617B685B6A3A
:102978007A6913437B617B685B6A042B17D17B6898
:102988009B6A7A6913437B617B68DB6A002B0ED0F4
:10299800786800F059FD0346002B08D07B68402278
:1029A8005A657B68012283F83520012316E07B688D
:1029B8001B687A695A61786800F010FD0346FB606D
:1029C8007B68DB6D3F229A40FB689A607B68002237
:1029D8005A657B68012283F835200023184618378A
:1029E800BD4680BD3F8010F080B584B000AF7860F0
:1029F8007B68002B01D1012350E07B6893F83530C8
:102A0800DBB2022B01D1022348E07B681B681A68FD
:102A18007B681B6822F001021A607B681B68002231
:102A28001A607B681B6800225A607B681B6800225A
:102A38009A607B681B680022DA607B681B6800224A
:102A48001A617B681B6821225A61786800F0C6FC0D
:102A58000346FB607B680022DA637B6800221A6405
:102A68007B6800225A647B6800229A647B68002293
:102A7800DA647B6800221A657B68DB6D3F229A4026
:102A8800FB689A607B6800225A657B68002283F89D
:102A980035207B68002283F834200023184610373D
:102AA800BD4680BD80B586B000AFF860B9607A6079
:102AB8003B600023FB75FB6893F83430012B01D190
:102AC800022326E0FB68012283F83420FB6893F890
:102AD8003530DBB2012B15D1FB68022283F8352093
:102AE800FB6800225A653B687A68B968F86800F0A4
:102AF80047FCFB681B681A68FB681B6842F0010208
:102B08001A6005E0FB68002283F834200223FB7575
:102B1800FB7D18461837BD4680BD80B586B000AF2E
:102B2800F860B9607A603B600023FB75FB689B6DB9
:102B38003B61FB6893F83430012B01D1022348E054
:102B4800FB68012283F83420FB6893F83530DBB248
:102B5800012B37D1FB68022283F83520FB6800225D
:102B68005A653B687A68B968F86800F009FCFB6840
:102B7800DB6D3F229A403B699A60FB681B681A68C4
:102B8800FB681B6842F016021A60FB681B685A69EA
:102B9800FB681B6842F080025A61FB681B6C002BC3
:102BA80007D0FB681B681A68FB681B6842F00802BC
:102BB8001A60FB681B681A68FB681B6842F0010210
:102BC8001A6005E0FB68002283F834200223FB75B5
:102BD800FB7D18461837BD4680BD80B584B000AF70
:102BE80078607B689B6DFB60FFF7CEF9B8607B6807
:102BF80093F83530DBB2022B08D07B6880225A6507
:102C08007B68002283F83420012352E07B681B682C
:102C18001A687B681B6822F016021A607B681B68BA
:102C28005A697B681B6822F080025A617B681B6CBA
:102C3800002B03D17B689B6C002B07D07B681B683B
:102C48001A687B681B6822F008021A607B681B6898
:102C58001A687B681B6822F001021A6013E0FFF70C
:102C680093F90246BB68D31A052B0CD97B6820223E
:102C78005A657B68002283F834207B68032283F836
:102C88003520032315E07B681B681B6803F00103EC
:102C9800002BE4D17B68DB6D3F229A40FB689A6089
:102CA8007B68002283F834207B68012283F8352072
:102CB800002318461037BD4680BD80B483B000AFEE
:102CC80078607B6893F83530DBB2022B04D07B68E0
:102CD80080225A6501230CE07B68052283F83520A1
:102CE8007B681B681A687B681B6822F001021A60FF
:102CF800002318460C37BD465DF8047B704780B545
:102D08008AB000AFF8600B467A60FB720023FB774D
:102D1800FFF73AF9B861FB6893F83530DBB2022B5C
:102D280008D0FB6880225A65FB68002283F83420AB
:102D38000123BFE0FB681B681B6803F48073002B4A
:102D480005D0FB684FF480725A650123B2E0FB7A24
:102D5800002B06D1FB68DB6D202202FA03F37B62AD
:102D680005E0FB68DB6D102202FA03F37B62FB6867
:102D78009B6D7B617B691B683B625AE07B68B3F1A2
:102D8800FF3F17D07B68002B07D0FFF7FDF80246FE
:102D9800BB69D31A7A689A420CD2FB6820225A651A
:102DA800FB68002283F83420FB68012283F8352071
:102DB80003237FE07B691B683B62FB68DB6D0822AD
:102DC8009A403B6A1340002B0BD0FB685B6D43F0C5
:102DD8000102FB685A65FB68DB6D08229A407B6933
:102DE8009A60FB68DB6D01229A403B6A1340002B16
:102DF8000BD0FB685B6D43F00202FB685A65FB6809
:102E0800DB6D01229A407B699A60FB68DB6D0422C6
:102E18009A403B6A1340002B0BD0FB685B6D43F074
:102E28000402FB685A65FB68DB6D04229A407B69E3
:102E38009A603A6A7B6A1340002B05D1FB685B6D88
:102E480003F00103002B99D0FB685B6D002B18D0B1
:102E5800FB685B6D03F00103002B12D0F868FFF7E5
:102E6800BCFEFB68DB6D30229A407B699A60FB6888
:102E7800002283F83420FB68012283F835200123DF
:102E880018E0FB7A002B0ED1FB68DB6D30229A40EC
:102E98007B699A60FB68002283F83420FB68012272
:102EA80083F8352005E0FB68DB6D10229A407B69CA
:102EB8009A60FB7F18462837BD4680BD80B586B02E
:102EC80000AF78600023BB608E4B1B688E4AA2FB64
:102ED80003239B0A7B617B689B6D3B613B691B6895
:102EE800FB607B68DB6D08229A40FB681340002B6F
:102EF8001AD07B681B681B6803F00403002B13D0EF
:102F08007B681B681A687B681B6822F004021A60D9
:102F18007B68DB6D08229A403B699A607B685B6D31
:102F280043F001027B685A657B68DB6D01229A4099
:102F3800FB681340002B12D07B681B685B6903F0A9
:102F48008003002B0BD07B68DB6D01229A403B6924
:102F58009A607B685B6D43F002027B685A657B6808
:102F6800DB6D04229A40FB681340002B12D07B686B
:102F78001B681B6803F00203002B0BD07B68DB6D1A
:102F880004229A403B699A607B685B6D43F00402B7
:102F98007B685A657B68DB6D10229A40FB6813409A
:102FA800002B43D07B681B681B6803F00803002BC9
:102FB8003CD07B68DB6D10229A403B699A607B6845
:102FC8001B681B6803F48023002B18D07B681B68E0
:102FD8001B6803F40023002B08D17B681B6C002BB3
:102FE80024D07B681B6C786898471FE07B689B6CD3
:102FF800002B1BD07B689B6C7868984716E07B6831
:103008001B681B6803F48073002B07D17B681B685F
:103018001A687B681B6822F008021A607B681B6CC0
:10302800002B03D07B681B6C786898477B68DB6D46
:1030380020229A40FB681340002B00F08F807B68A9
:103048001B681B6803F01003002B00F087807B6867
:10305800DB6D20229A403B699A607B6893F8353093
:10306800DBB2052B36D17B681B681A687B681B6846
:1030780022F016021A607B681B685A697B681B6815
:1030880022F080025A617B681B6C002B03D17B689D
:103098009B6C002B07D07B681B681A687B681B68D1
:1030A80022F008021A607B68DB6D3F229A403B6978
:1030B8009A607B68002283F834207B68012283F8B9
:1030C80035207B681B6D002B7ED07B681B6D786874
:1030D800984779E07B681B681B6803F48023002B02
:1030E8001DD07B681B681B6803F40023002B0DD1DF
:1030F8007B685B6C002B31D07B685B6C7868984789
:103108002CE000BF00000020B5814E1B7B68DB6B04
:10311800002B23D07B68DB6B786898471EE07B68C0
:103128001B681B6803F48073002B0FD17B681B6836
:103138001A687B681B6822F010021A607B680022FC
:1031480083F834207B68012283F835207B68DB6BA9
:10315800002B03D07B68DB6B786898477B685B6DD6
:10316800002B32D07B685B6D03F00103002B22D06B
:103178007B68052283F835207B681B681A687B68A2
:103188001B6822F001021A60BB680133BB607A69D0
:103198009A4207D37B681B681B6803F00103002B66
:1031A800F2D100E000BF7B68002283F834207B68FE
:1031B800012283F835207B68DB6C002B05D07B6807
:1031C800DB6C7868984700E000BF1837BD4680BDC3
:1031D80080B487B000AFF8600B467A60FB720023BA
:1031E800FB75FB6893F83430012B01D102233CE0D6
:1031F800FB68012283F83420FB6893F83530DBB292
:10320800012B29D1FB7A052B29D801A252F823F0EA
:1032180031320008393200084132000849320008CA
:103228005132000859320008FB687A68DA6317E0FF
:10323800FB687A681A6413E0FB687A685A640FE0DE
:10324800FB687A689A640BE0FB687A68DA6407E0DE
:10325800FB687A681A6503E00123FB7500E000BF8C
:10326800FB68002283F83420FB7D18461C37BD46D6
:103278005DF8047B704700BF80B485B000AF78600C
:103288000B46FB700023FB737B6893F83430012BEB
:1032980001D1022353E07B68012283F834207B6844
:1032A80093F83530DBB2012B42D1FB78062B3CD8A2
:1032B80001A252F823F000BFDD320008E532000811
:1032C800ED320008F5320008FD3200080533000829
:1032D8000D3300087B680022DA632BE07B6800224C
:1032E8001A6427E07B6800225A6423E07B68002286
:1032F8009A641FE07B680022DA641BE07B68002286
:103308001A6517E07B680022DA637B6800221A647A
:103318007B6800225A647B6800229A647B680022DA
:10332800DA647B6800221A6504E00123FB7301E07C
:103338000123FB737B68002283F83420FB7B18464B
:103348001437BD465DF8047B704700BF80B483B076
:1033580000AF78607B6893F83530DBB218460C37DD
:10336800BD465DF8047B704780B483B000AF7860D9
:103378007B685B6D18460C37BD465DF8047B70476B
:1033880080B485B000AFF860B9607A603B60FB68D4
:103398001B681A68FB681B6822F480221A60FB68A5
:1033A8001B683A685A60FB689B68402B08D1FB6829
:1033B8001B687A689A60FB681B68BA68DA6007E07D
:1033C800FB681B68BA689A60FB681B687A68DA60F1
:1033D80000BF1437BD465DF8047B704780B485B0E4
:1033E80000AF78607B681B68DBB2103B144AA2FB15
:1033F80003231B09FB60134AFB6813441B781A4616
:103408007B68DA65FB68032B09D97B681B6823F4A2
:103418007F7323F003031A1D7B689A6507E07B68B6
:103428001B6823F47F7323F003037A6893657B6832
:103438009B6D18461437BD465DF8047B704700BF86
:10344800ABAAAAAA84BC0E0880B485B000AF786085
:103458000023FB737B689B6ABB607B689B69002BBE
:103468001FD1BB68032B56D801A252F823F000BF26
:10347800893400089B340008893400081F35000887
:103488007B68DB6A03F08073002B46D00123FB7353
:1034980043E07B68DB6AB3F1C07F40D10123FB7353
:1034A8003DE07B689B69B3F5005F21D1BB68032BC6
:1034B80037D801A252F823F0D1340008D7340008D5
:1034C800D1340008E93400080123FB7330E07B683D
:1034D800DB6A03F08073002B25D00123FB7322E005
:1034E8007B68DB6AB3F1C07F1FD10123FB731CE04B
:1034F800BB68022B03D9BB68032B03D018E0012358
:10350800FB7315E07B68DB6A03F08073002B0ED039
:103518000123FB730BE000BF0AE000BF08E000BF17
:1035280006E000BF04E000BF02E000BF00E000BF0B
:10353800FB7B18461437BD465DF8047B704700BF17
:1035480080B489B000AF7860396000237B610023C4
:103558003B610023BB610023FB616BE10122FB6936
:1035680002FA03F37B613B681B687A6913403B618D
:103578003A697B699A4240F05A813B685B68022B42
:1035880003D03B685B68122B23D1FB69DA087B68A0
:10359800083253F82230BB61FB6903F007039B0034
:1035A8000F2202FA03F3DB43BA691340BB613B689D
:1035B8001A69FB6903F007039B0002FA03F3BA696F
:1035C8001343BB61FB69DA087B680832B96943F8C1
:1035D80022107B681B68BB61FB695B00032202FA4F
:1035E80003F3DB43BA691340BB613B685B6803F0D4
:1035F8000302FB695B0002FA03F3BA691343BB6178
:103608007B68BA691A603B685B68012B0BD03B6822
:103618005B68022B07D03B685B68112B03D03B68C3
:103628005B68122B30D17B689B68BB61FB695B00D0
:10363800032202FA03F3DB43BA691340BB613B6818
:10364800DA68FB695B0002FA03F3BA691343BB61EA
:103658007B68BA699A607B685B68BB610122FB6919
:1036680002FA03F3DB43BA691340BB613B685B684A
:103678001B0903F00102FB6902FA03F3BA69134359
:10368800BB617B68BA695A607B68DB68BB61FB69B0
:103698005B00032202FA03F3DB43BA691340BB6100
:1036A8003B689A68FB695B0002FA03F3BA69134343
:1036B800BB617B68BA69DA603B685B6803F080537A
:1036C800002B00F0B4800023FB60604B5B6C5F4A0A
:1036D80043F4804353645D4B5B6C03F48043FB60AD
:1036E800FB685B4AFB699B08023352F82330BB61D5
:1036F800FB6903F003039B000F2202FA03F3DB4389
:10370800BA691340BB617B68524A93422BD07B68ED
:10371800514A934225D07B68504A93421FD07B6818
:103728004F4A934219D07B684E4A934213D07B6824
:103738004D4A93420DD07B684C4A934207D07B6830
:103748004B4A934201D107230EE008230CE00623DD
:103758000AE0052308E0042306E0032304E002232B
:1037680002E0012300E00023FA6902F0030292005C
:103778009340BA691343BB613549FB699B0802331F
:10378800BA6941F823203B4B1B68BB613B69DB43AB
:10379800BA691340BB613B685B6803F48033002B54
:1037A80003D0BA693B691343BB61324ABB691360F2
:1037B800304B5B68BB613B69DB43BA691340BB6153
:1037C8003B685B6803F40033002B03D0BA693B699C
:1037D8001343BB61274ABB695360264B9B68BB6197
:1037E8003B69DB43BA691340BB613B685B6803F420
:1037F8008013002B03D0BA693B691343BB611D4A90
:10380800BB6993601B4BDB68BB613B69DB43BA69EF
:103818001340BB613B685B6803F40013002B03D0C3
:10382800BA693B691343BB61124ABB69D360FB6940
:103838000133FB61FB690F2B7FF690AE00BF00BF21
:103848002437BD465DF8047B704700BF003802404E
:103858000038014000000240000402400008024015
:10386800000C024000100240001402400018024000
:10387800001C0240003C014080B487B000AF786073
:10388800396000233B610023FB600023BB600023F9
:103898007B61CDE001227B6902FA03F33B613A6860
:1038A8003B691340FB60FA683B699A4240F0BD806F
:1038B800654A7B699B08023352F82330BB607B69F9
:1038C80003F003039B000F2202FA03F3BA681340C4
:1038D800BB607B685D4A93422BD07B685C4A93420D
:1038E80025D07B685B4A93421FD07B685A4A934233
:1038F80019D07B68594A934213D07B68584A93423F
:103908000DD07B68574A934207D07B68564A93424A
:1039180001D107230EE008230CE006230AE0052363
:1039280008E0042306E0032304E0022302E0012365
:1039380000E000237A6902F0030292009340BA681B
:103948009A4232D17B6903F003039B000F2202FAEB
:1039580003F3BB603C4A7B699B08023352F823108F
:10396800BB68DA4338487B699B080A40023340F851
:1039780023203E4B1A68FB68DB433C4913400B602D
:103988003A4B5A68FB68DB43384913404B60374B66
:103998009A68FB68DB43354913408B60334BDA6820
:1039A800FB68DB4331491340CB607B681A687B694D
:1039B8005B00032101FA03F3DB431A407B681A60BA
:1039C8007B69DA087B68083253F822107B6903F0B8
:1039D80007039B000F2202FA03F3DB437A69D2083C
:1039E80019407B68083243F822107B689A687B6923
:1039F8005B00032101FA03F3DB431A407B689A60FA
:103A08007B685A6801217B6901FA03F3DB431A409A
:103A18007B685A607B68DA687B695B00032101FA7E
:103A280003F3DB431A407B68DA607B6901337B610F
:103A38007B690F2B7FF62EAF00BF00BF1C37BD463A
:103A48005DF8047B704700BF003801400000024069
:103A58000004024000080240000C0240001002402E
:103A68000014024000180240001C0240003C0140C3
:103A780080B485B000AF78600B467B807B681A699C
:103A88007B881340002B02D00123FB7301E0002345
:103A9800FB73FB7B18461437BD465DF8047B704703
:103AA80080B483B000AF78600B467B8013467B7090
:103AB8007B78002B03D07A887B689A6103E07B8847
:103AC8001A047B689A6100BF0C37BD465DF8047B19
:103AD800704780B483B000AF78600B467B807B680A
:103AE8005A697B881A407B889A4204D17B881A04D9
:103AF8007B689A6102E07A887B689A6100BF0C371C
:103B0800BD465DF8047B704780B485B000AF78602F
:103B18000B467B804FF48033FB607A88FB68134345
:103B2800FB60FA687B68DA617A887B68DA61FA6830
:103B38007B68DA617B68DB69FB607B68DB6903F4BF
:103B48008033002B01D0002300E0012318461437EE
:103B5800BD465DF8047B704780B582B000AF034670
:103B6800FB80084B5A69FB881340002B06D0054A96
:103B7800FB885361FB88184600F006F800BF083739
:103B8800BD4680BD003C014080B483B000AF034611
:103B9800FB8000BF0C37BD465DF8047B7047000012
:103BA80080B584B000AF78607B68002B01D1012319
:103BB8001BE17B6893F83D30DBB2002B06D17B68B4
:103BC800002283F83C20786800F04DF97B682422B5
:103BD80083F83D207B681B681A687B681B6822F0A5
:103BE80001021A6008F0FAFCF8607B685B68814A99
:103BF800934207D8FB68804A934294BF012300236D
:103C0800DBB206E0FB687D4A934294BF01230023A0
:103C1800DBB2002B01D00123E7E0FB68784AA2FB66
:103C280003239B0CBB607B681B685B6823F03F0128
:103C38007B681B68BA680A435A607B681B681B6A02
:103C480023F03F017B685B686A4A934202D8BB68ED
:103C5800013309E0BB684FF4967202FB03F3694A2B
:103C6800A2FB03239B0901337A6812680B43136292
:103C78007B681B68DB6923F44F4222F0FF027B68F4
:103C88005B685C498B4219D8FB68591E7B685B6886
:103C98005B00B1FBF3F3591C40F6FC730B40002B9F
:103CA8000AD0FB68591E7B685B685B00B1FBF3F3C5
:103CB8000133C3F30B0351E004234FE07B689B6897
:103CC800002B11D1FB68581E7B6859680B465B00B6
:103CD8000B44B0FBF3F30133C3F30B03002B0CBF0E
:103CE80001230023DBB212E0FB68581E7B68596889
:103CF8000B469B000B4499000B44B0FBF3F30133D4
:103D0800C3F30B03002B0CBF01230023DBB2002BF2
:103D180001D0012322E07B689B68002B0ED1FB6851
:103D2800581E7B6859680B465B000B44B0FBF3F3E5
:103D38000133C3F30B0343F400430FE0FB68581E41
:103D48007B6859680B469B000B4499000B44B0FBF9
:103D5800F3F30133C3F30B0343F440437968096871
:103D68001343CB617B681B681B6823F0C0017B6829
:103D7800DA697B681B6A1A437B681B680A431A6006
:103D88007B681B689B6823F4034323F0FF037A686E
:103D980011697A68D26811437A6812680B43936094
:103DA8007B681B68DB6823F0FF017B685A697B68C6
:103DB8009B691A437B681B680A43DA607B681B6847
:103DC8001A687B681B6842F001021A607B6800224F
:103DD8001A647B68202283F83D207B6800221A63DE
:103DE8007B68002283F83E20002318461037BD4622
:103DF80080BD00BFA08601007F841E00FF083D0033
:103E080083DE1B43D34D621080B582B000AF78606B
:103E18007B68002B01D1012321E07B68242283F8F1
:103E28003D207B681B681A687B681B6822F00102CA
:103E38001A60786800F021F87B6800221A647B68B1
:103E4800002283F83D207B6800221A637B680022E9
:103E580083F83E207B68002283F83C200023184624
:103E68000837BD4680BD80B483B000AF786000BF1E
:103E78000C37BD465DF8047B704780B483B000AF53
:103E8800786000BF0C37BD465DF8047B70470000C2
:103E980080B588B002AFF8607A601A460B467B811D
:103EA80013463B81FEF770F87861FB6893F83D3064
:103EB800DBB2202B40F0E0807B69009319230122BC
:103EC8007049F86805F0C9FA0346002B01D00223AF
:103ED800D3E0FB6893F83C30012B01D10223CCE0FE
:103EE800FB68012283F83C20FB681B681B6803F011
:103EF8000103012B07D0FB681B681A68FB681B6865
:103F080042F001021A60FB681B681A68FB681B68AC
:103F180022F400621A60FB68212283F83D20FB68C6
:103F2800102283F83E20FB6800221A64FB687A6836
:103F38005A62FB683A895A85FB685B8D9AB2FB68BE
:103F48001A85FB68504ADA6279897B693A6AF868A7
:103F580004F08CFE0346002B01D001238DE00023E2
:103F68003B61FB681B685B693B61FB681B689B697D
:103F78003B613B6966E07A69396AF86805F043FB9A
:103F88000346002B0DD0FB681B6C042B07D1FB6884
:103F98001B681A68FB681B6842F400721A600123E8
:103FA8006BE0FB685B6A1A78FB681B681A61FB6840
:103FB8005B6A5A1CFB685A62FB685B8D9BB2013BCB
:103FC8009AB2FB685A85FB681B8D013B9AB2FB6865
:103FD8001A85FB681B685B6903F00403042B1BD17B
:103FE800FB681B8D002B17D0FB685B6A1A78FB688F
:103FF8001B681A61FB685B6A5A1CFB685A62FB689B
:104008005B8D9BB2013B9AB2FB685A85FB681B8D9E
:10401800013B9AB2FB681A857A69396AF86805F033
:1040280033FB0346002B0DD0FB681B6C042B07D118
:10403800FB681B681A68FB681B6842F400721A6008
:1040480001231AE0FB681B8D002B94D1FB681B68C9
:104058001A68FB681B6842F400721A60FB68202229
:1040680083F83D20FB68002283F83E20FB6800228D
:1040780083F83C20002300E0022318461837BD4689
:1040880080BD00BF020010000000FFFF80B58CB0AB
:1040980002AFF8607A601A460B467B8113463B8173
:1040A800FDF772FF7862FB6893F83D30DBB2202B96
:1040B80040F00B827B6A0093192301227C49F8683F
:1040C80005F0CBF90346002B01D00223FEE1FB6883
:1040D80093F83C30012B01D10223F7E1FB68012260
:1040E80083F83C20FB681B681B6803F00103012B65
:1040F80007D0FB681B681A68FB681B6842F001025E
:104108001A60FB681B681A68FB681B6822F4006267
:104118001A60FB68222283F83D20FB68102283F88E
:104128003E20FB6800221A64FB687A685A62FB68C2
:104138003A895A85FB685B8D9AB2FB681A85FB68D9
:104148005C4ADA6279897B6A3A6BF86804F004FEA3
:104158000346002B01D00123B8E1FB681B8D002B1F
:1041680013D100233B62FB681B685B693B62FB68F9
:104178001B689B693B623B6AFB681B681A68FB68A3
:104188001B6842F400721A608CE1FB681B8D012BDE
:104198001BD1FB681B681A68FB681B6822F48062E5
:1041A8001A600023FB61FB681B685B69FB61FB68A5
:1041B8001B689B69FB61FB69FB681B681A68FB68E5
:1041C8001B6842F400721A606CE1FB681B8D022BBD
:1041D8001BD1FB681B681A68FB681B6822F48062A5
:1041E8001A60FB681B681A68FB681B6842F4006267
:1041F8001A600023BB61FB681B685B69BB61FB68D5
:104208001B689B69BB61BB694CE1FB681B681A684A
:10421800FB681B6842F480621A6000237B61FB68BC
:104228001B685B697B61FB681B689B697B617B69B9
:1042380038E1FB681B8D032B00F2F180FB681B8DB6
:10424800012B23D17A6A396BF86805F09BFA03468B
:10425800002B01D0012339E1FB681B681A69FB6850
:104268005B6AD2B21A70FB685B6A5A1CFB685A62B6
:10427800FB681B8D013B9AB2FB681A85FB685B8D56
:104288009BB2013B9AB2FB685A850BE1FB681B8D18
:10429800022B4ED17B6A00933B6B00220649F868DB
:1042A80005F0DBF80346002B08D001230EE100BF20
:1042B800020010000000FFFF04000100FB681B68FB
:1042C8001A68FB681B6842F400721A60FB681B6876
:1042D8001A69FB685B6AD2B21A70FB685B6A5A1C7F
:1042E800FB685A62FB681B8D013B9AB2FB681A8512
:1042F800FB685B8D9BB2013B9AB2FB685A85FB68F1
:104308001B681A69FB685B6AD2B21A70FB685B6A41
:104318005A1CFB685A62FB681B8D013B9AB2FB680A
:104328001A85FB685B8D9BB2013B9AB2FB685A8584
:10433800B8E07B6A00933B6B00226649F86805F099
:104348008CF80346002B01D00123BFE0FB681B68F3
:104358001A68FB681B6822F480621A60FB681B6895
:104368001A69FB685B6AD2B21A70FB685B6A5A1CEE
:10437800FB685A62FB681B8D013B9AB2FB681A8581
:10438800FB685B8D9BB2013B9AB2FB685A857B6ADE
:1043980000933B6B00224F49F86805F05EF803462E
:1043A800002B01D0012391E0FB681B681A68FB68A9
:1043B8001B6842F400721A60FB681B681A69FB6884
:1043C8005B6AD2B21A70FB685B6A5A1CFB685A6255
:1043D800FB681B8D013B9AB2FB681A85FB685B8DF5
:1043E8009BB2013B9AB2FB685A85FB681B681A6945
:1043F800FB685B6AD2B21A70FB685B6A5A1CFB687E
:104408005A62FB681B8D013B9AB2FB681A85FB68F0
:104418005B8D9BB2013B9AB2FB685A8542E07A6A8F
:10442800396BF86805F0AEF90346002B01D001237B
:104438004CE0FB681B681A69FB685B6AD2B21A70A9
:10444800FB685B6A5A1CFB685A62FB681B8D013B60
:104458009AB2FB681A85FB685B8D9BB2013B9AB2E6
:10446800FB685A85FB681B685B6903F00403042B2F
:1044780018D1FB681B681A69FB685B6AD2B21A70AC
:10448800FB685B6A5A1CFB685A62FB681B8D013B20
:104498009AB2FB681A85FB685B8D9BB2013B9AB2A6
:1044A800FB685A85FB681B8D002B7FF4C2AEFB6846
:1044B800202283F83D20FB68002283F83E20FB6819
:1044C800002283F83C20002300E002231846283706
:1044D800BD4680BD0400010080B58AB002AFF86017
:1044E800B9603B601346FB80FDF74EFDF861FB6841
:1044F80093F83D30DBB2202B40F0FB80BB68002BEB
:1045080002D0FB88002B01D10123F3E0FB6893F86C
:104518003C30012B01D10223ECE0FB68012283F837
:104528003C20FB681B681B6803F00103012B07D0C4
:10453800FB681B681A68FB681B6842F001021A6076
:10454800FB681B681A68FB681B6822F400621A6023
:10455800FB68212283F83D20FB68202283F83E2057
:10456800FB6800221A64FB68BA685A62FB68FA881A
:104578005A85FB685B8D9AB2FB681A85FB685F4AAF
:10458800DA62FB681B681A68FB681B6842F4806281
:104598001A60FB6900933B6800225949F86804F0E7
:1045A8005CFF0346002B01D00123A3E00023BB617D
:1045B800FB681B685B69BB61FB681B689B69BB6127
:1045C800BB69FB681B69B3F5404F65D1FB69009374
:1045D8003B6800224A49F86804F03FFF0346002B75
:1045E80001D0012386E000237B61FB681B685B69BF
:1045F8007B61FB681B689B697B617B694CE0FA699E
:104608003968F86804F0FFFF0346002B09D0FB68FF
:104618001B681A68FB681B6822F480621A60012311
:1046280068E0FB685B6A1A78FB681B681A61FB68BC
:104638005B6A5A1CFB685A62FB685B8D9BB2013B44
:104648009AB2FB685A85FB681B8D013B9AB2FB68DE
:104658001A85FB681B685B6903F00403042B1BD1F4
:10466800FB681B8D002B17D0FB685B6A1A78FB6808
:104678001B681A61FB685B6A5A1CFB685A62FB6814
:104688005B8D9BB2013B9AB2FB685A85FB681B8D18
:10469800013B9AB2FB681A85FB681B8D002BAED1D3
:1046A800FB6900933B6800224FF48231F86804F0FC
:1046B800D4FE0346002B01D001231BE0FB681B68D6
:1046C8006FF480625A61FB681B681A68FB681B6894
:1046D80022F480621A60FB68202283F83D20FB6880
:1046E800002283F83E20FB68002283F83C20002348
:1046F80000E0022318462037BD4680BD0000FFFFBA
:104708000200010080B58AB002AFF860B9603B6072
:104718001346FB80FDF738FCF861FB6893F83D30E1
:10472800DBB2202B40F0EE80BB68002B02D0FB8868
:10473800002B01D10123E6E0FB6893F83C30012B04
:1047480001D10223DFE0FB68012283F83C20FB68EB
:104758001B681B6803F00103012B07D0FB681B686B
:104768001A68FB681B6842F001021A60FB681B6844
:104778001A68FB681B6822F400621A60FB68222230
:1047880083F83D20FB68202283F83E20FB68002246
:104798001A64FB68BA685A62FB68FA885A85FB682B
:1047A8005B8D9AB2FB681A85FB68594ADA62FB6826
:1047B8001B681A68FB681B6842F480621A60FB6910
:1047C80000933B6800225349F86804F046FE03460C
:1047D800002B01D0012396E00023BB61FB681B6816
:1047E8005B69BB61FB681B689B69BB61BB694EE089
:1047F800FA693968F86804F0C5FF0346002B09D048
:10480800FB681B681A68FB681B6822F480621A60E0
:10481800012378E0FB681B681A69FB685B6AD2B2FF
:104828001A70FB685B6A5A1CFB685A62FB681B8D2E
:10483800013B9AB2FB681A85FB685B8D9BB2013B12
:104848009AB2FB685A85FB681B685B6903F004032E
:10485800042B1CD1FB681B8D002B18D0FB681B6830
:104868001A69FB685B6AD2B21A70FB685B6A5A1CE9
:10487800FB685A62FB681B8D013B9AB2FB681A857C
:10488800FB685B8D9BB2013B9AB2FB685A85FB685B
:104898001B8D002BACD1FA693968F86804F035FF34
:1048A8000346002B09D0FB681B681A68FB681B6865
:1048B80022F480621A60012325E000237B61FB68F3
:1048C8001B685B697B61FB681B681A68FB681B686F
:1048D80042F001021A607B69FB681B681A68FB6872
:1048E8001B6822F480621A60FB68202283F83D204E
:1048F800FB68002283F83E20FB68002283F83C20F6
:10490800002300E0022318462037BD4680BD00BFC3
:104918000000FFFF0200010080B487B000AFF8601C
:104928007A601A460B467B8113463B8100237B61E4
:10493800FB6893F83D30DBB2202B40F08580464B76
:104948001B68DB08454AA2FB03231A0A13469B008F
:1049580013449A0013447B617B69013B7B617B694B
:10496800002B16D1FB6800221A63FB68202283F80B
:104978003D20FB68002283F83E20FB681B6C43F057
:104988002002FB681A64FB68002283F83C2001239C
:104998005BE0FB681B689B6903F00203022BDBD01A
:1049A800FB6893F83C30012B01D102234DE0FB68F2
:1049B800012283F83C20FB681B681B6803F0010395
:1049C800012B07D0FB681B681A68FB681B6842F05C
:1049D80001021A60FB681B681A68FB681B6822F4EE
:1049E80000621A60FB68212283F83D20FB681022D0
:1049F80083F83E20FB6800221A64FB687A685A62D2
:104A0800FB683A895A85FB685B8D9AB2FB681A8500
:104A1800FB68134ADA627A89FB685A64FB681B6888
:104A28001A68FB681B6842F480721A60FB680022EF
:104A380083F83C20FB681B685A68FB681B6842F4D3
:104A4800E0625A60002300E0022318461C37BD4686
:104A58005DF8047B704700BF0000002089B5F8149A
:104A68000000FFFF80B487B000AFF8607A601A4694
:104A78000B467B8113463B8100237B61FB6893F8DF
:104A88003D30DBB2202B40F08D804A4B1B68DB08A1
:104A9800494AA2FB03231A0A13469B0013449A00AF
:104AA80013447B617B69013B7B617B69002B16D1D9
:104AB800FB6800221A63FB68202283F83D20FB680C
:104AC800002283F83E20FB681B6C43F02002FB6841
:104AD8001A64FB68002283F83C20012363E0FB682A
:104AE8001B689B6903F00203022BDBD0FB6893F879
:104AF8003C30012B01D1022355E0FB68012283F8E9
:104B08003C20FB681B681B6803F00103012B07D0DE
:104B1800FB681B681A68FB681B6842F001021A6090
:104B2800FB681B681A68FB681B6822F400621A603D
:104B3800FB68222283F83D20FB68102283F83E2080
:104B4800FB6800221A64FB687A685A62FB683A8933
:104B58005A85FB685B8D9AB2FB681A85FB68174A11
:104B6800DA627A89FB685A64FB681B681A68FB6812
:104B78001B6842F480621A60FB681B681A68FB684D
:104B88001B6842F480721A60FB68002283F83C209C
:104B9800FB681B685A68FB681B6842F4E0625A604D
:104BA800002300E0022318461C37BD465DF8047B4D
:104BB800704700BF0000002089B5F8140000FFFF0F
:104BC80080B485B000AFF860B9601346FB80FB681D
:104BD80093F83D30DBB2202B58D1BB68002B02D0B4
:104BE800FB88002B01D1012351E0FB6893F83C308E
:104BF800012B01D102234AE0FB68012283F83C2003
:104C0800FB681B681B6803F00103012B07D0FB68D6
:104C18001B681A68FB681B6842F001021A60FB688F
:104C28001B681A68FB681B6822F400621A60FB683C
:104C3800212283F83D20FB68202283F83E20FB6870
:104C480000221A64FB68BA685A62FB68FA885A85B7
:104C5800FB685B8D9AB2FB681A85FB680F4ADA62BB
:104C6800FB681B681A68FB681B6842F480621A605C
:104C7800FB68002283F83C20FB681B685A68FB68C5
:104C88001B6842F4E0625A60002300E002231846E1
:104C98001437BD465DF8047B704700BF0000FFFF76
:104CA80080B485B000AFF860B9601346FB80FB683C
:104CB80093F83D30DBB2202B58D1BB68002B02D0D3
:104CC800FB88002B01D1012351E0FB6893F83C30AD
:104CD800012B01D102234AE0FB68012283F83C2022
:104CE800FB681B681B6803F00103012B07D0FB68F6
:104CF8001B681A68FB681B6842F001021A60FB68AF
:104D08001B681A68FB681B6822F400621A60FB685B
:104D1800222283F83D20FB68202283F83E20FB688E
:104D280000221A64FB68BA685A62FB68FA885A85D6
:104D3800FB685B8D9AB2FB681A85FB680F4ADA62DA
:104D4800FB681B681A68FB681B6842F480621A607B
:104D5800FB68002283F83C20FB681B685A68FB68E4
:104D68001B6842F4E0625A60002300E00223184600
:104D78001437BD465DF8047B704700BF0000FFFF95
:104D880080B586B000AFF8607A601A460B467B8122
:104D980013463B8100233B61FB6893F83D30DBB24F
:104DA800202B40F0F4807C4B1B68DB087B4AA2FB7D
:104DB80003231A0A13469B0013449A0013443B61C9
:104DC8003B69013B3B613B69002B16D1FB68002224
:104DD8001A63FB68202283F83D20FB68002283F8D1
:104DE8003E20FB681B6C43F02002FB681A64FB68DA
:104DF800002283F83C200123CAE0FB681B689B69FA
:104E080003F00203022BDBD0FB6893F83C30012B44
:104E180001D10223BCE0FB68012283F83C20FB6837
:104E28001B681B6803F00103012B07D0FB681B6894
:104E38001A68FB681B6842F001021A60FB681B686D
:104E48001A68FB681B6822F400621A60FB6821225A
:104E580083F83D20FB68102283F83E20FB6800227F
:104E68001A64FB687A685A62FB683A895A85FB6853
:104E78005B8D9AB2FB681A85FB68494ADA627A89BF
:104E8800FB685A64FB681B8D002B62D0FB685B6B68
:104E9800444ADA63FB685B6B434ADA64FB685B6B22
:104EA80000221A64FB685B6B00225A64FB685B6B28
:104EB80000229A64FB685B6B00221A65FB68586BDA
:104EC800FB685B6A1946FB681B6810331A46FB6867
:104ED8001B8DFDF722FE0346FB75FB7D002B24D1BD
:104EE800FB681B681A68FB681B6842F480621A60DA
:104EF800FB681B681A68FB681B6842F480721A60BA
:104F0800FB68002283F83C20FB681B685A68FB6832
:104F18001B6842F440725A60FB681B685A68FB6859
:104F28001B6842F400625A602FE0FB68202283F875
:104F38003D20FB68002283F83E20FB681B6C43F091
:104F48001002FB681A64FB68002283F83C200123E6
:104F58001EE0FB681B681A68FB681B6842F48062E5
:104F68001A60FB681B681A68FB681B6842F4807249
:104F78001A60FB68002283F83C20FB681B685A68AB
:104F8800FB681B6842F4E0625A60002300E00223D9
:104F980018461837BD4680BD0000002089B5F814B2
:104FA8000000FFFF819100081B93000880B586B0C0
:104FB80000AFF8607A601A460B467B8113463B8146
:104FC80000233B61FB6893F83D30DBB2202B40F0B7
:104FD800F4807C4B1B68DB087B4AA2FB03231A0A7C
:104FE80013469B0013449A0013443B613B69013B01
:104FF8003B613B69002B16D1FB6800221A63FB68F2
:10500800202283F83D20FB68002283F83E20FB68BD
:105018001B6C43F02002FB681A64FB68002283F8CB
:105028003C200123CAE0FB681B689B6903F002036C
:10503800022BDBD0FB6893F83C30012B01D1022313
:10504800BCE0FB68012283F83C20FB681B681B68F6
:1050580003F00103012B07D0FB681B681A68FB6883
:105068001B6842F001021A60FB681B681A68FB683B
:105078001B6822F400621A60FB68222283F83D2034
:10508800FB68102283F83E20FB6800221A64FB6844
:105098007A685A62FB683A895A85FB685B8D9AB2CE
:1050A800FB681A85FB68494ADA627A89FB685A64A0
:1050B800FB681B8D002B62D0FB689B6B444ADA634C
:1050C800FB689B6B434ADA64FB689B6B00221A649B
:1050D800FB689B6B00225A64FB689B6B00229A64F6
:1050E800FB689B6B00221A65FB68986BFB681B6862
:1050F80010331946FB685B6A1A46FB681B8DFDF77F
:105108000CFD0346FB75FB7D002B24D1FB681B6857
:105118001A68FB681B6842F480621A60FB681B68A7
:105128001A68FB681B6842F480721A60FB680022E8
:1051380083F83C20FB681B685A68FB681B6842F4CC
:1051480040725A60FB681B685A68FB681B6842F427
:1051580000625A602FE0FB68202283F83D20FB683C
:10516800002283F83E20FB681B6C43F01002FB68AA
:105178001A64FB68002283F83C2001231EE0FB68C8
:105188001B681A68FB681B6842F480621A60FB6837
:105198001B681A68FB681B6842F480721A60FB6817
:1051A800002283F83C20FB681B685A68FB681B6870
:1051B80042F4E0625A60002300E0022318461837E0
:1051C800BD4680BD0000002089B5F8140000FFFF2F
:1051D800819100081B93000880B586B000AFF86085
:1051E800B9601346FB80FB6893F83D30DBB2202B97
:1051F80040F09F80BB68002B02D0FB88002B01D1B8
:10520800012397E0FB6893F83C30012B01D102237E
:1052180090E0FB68012283F83C20FB681B681B6850
:1052280003F00103012B07D0FB681B681A68FB68B1
:105238001B6842F001021A60FB681B681A68FB6869
:105248001B6822F400621A60FB68212283F83D2063
:10525800FB68202283F83E20FB6800221A64FB6862
:10526800BA685A62FB68FA885A85FB685B8D9AB2FD
:10527800FB681A85FB68314ADA62FB685B6B304A67
:10528800DA63FB685B6B2F4ADA64FB685B6B0022AE
:105298001A64FB685B6B00225A64FB685B6B002234
:1052A8009A64FB685B6B00221A65FB68586BFB68A5
:1052B8005B6A1946FB681B6810331A46FB681B8D2E
:1052C800FDF72BFC0346FB75FB7D002B1DD1FB680E
:1052D8001B681A68FB681B6842F480621A60FB68E6
:1052E800002283F83C20FB681B685A68FB681B682F
:1052F80042F440725A60FB681B685A68FB681B6876
:1053080042F400625A60002314E0FB68202283F80C
:105318003D20FB68002283F83E20FB681B6C43F0AD
:105328001002FB681A64FB68002283F83C20012302
:1053380000E0022318461837BD4680BD0000FFFF75
:10534800819100081B93000880B586B000AFF86013
:10535800B9601346FB80FB6893F83D30DBB2202B25
:1053680040F09F80BB68002B02D0FB88002B01D146
:10537800012397E0FB6893F83C30012B01D102230D
:1053880090E0FB68012283F83C20FB681B681B68DF
:1053980003F00103012B07D0FB681B681A68FB6840
:1053A8001B6842F001021A60FB681B681A68FB68F8
:1053B8001B6822F400621A60FB68222283F83D20F1
:1053C800FB68202283F83E20FB6800221A64FB68F1
:1053D800BA685A62FB68FA885A85FB685B8D9AB28C
:1053E800FB681A85FB68314ADA62FB689B6B304AB6
:1053F800DA63FB689B6B2F4ADA64FB689B6B0022BD
:105408001A64FB689B6B00225A64FB689B6B002242
:105418009A64FB689B6B00221A65FB68986BFB68B3
:105428001B6810331946FB685B6A1A46FB681B8DBC
:10543800FDF773FB0346FB75FB7D002B1DD1FB6855
:105448001B681A68FB681B6842F480621A60FB6874
:10545800002283F83C20FB681B685A68FB681B68BD
:1054680042F440725A60FB681B685A68FB681B6804
:1054780042F400625A60002314E0FB68202283F89B
:105488003D20FB68002283F83E20FB681B6C43F03C
:105498001002FB681A64FB68002283F83C20012391
:1054A80000E0022318461837BD4680BD0000FFFF04
:1054B800819100081B93000880B588B002AFF8609E
:1054C800084611461A4603467B810B463B81134624
:1054D800FB80FCF759FD7861FB6893F83D30DBB23F
:1054E800202B40F0D9807B690093192301226D4954
:1054F800F86803F0B2FF0346002B01D00223CCE08A
:10550800FB6893F83C30012B01D10223C5E0FB680E
:10551800012283F83C20FB681B681B6803F0010329
:10552800012B07D0FB681B681A68FB681B6842F0F0
:1055380001021A60FB681B681A68FB681B6822F482
:1055480000621A60FB68212283F83D20FB68402234
:1055580083F83E20FB6800221A64FB683A6A5A62A4
:10556800FB68BA8C5A85FB685B8D9AB2FB681A8512
:10557800FB684D4ADA62F8883A8979897B69019330
:10558800BB6A00930346F86803F09CFC0346002BB3
:1055980052D0012381E07A69B96AF86804F033F8D7
:1055A8000346002B0DD0FB681B6C042B07D1FB684E
:1055B8001B681A68FB681B6842F400721A600123B2
:1055C8006BE0FB685B6A1A78FB681B681A61FB680A
:1055D8005B6A5A1CFB685A62FB681B8D013B9AB2D6
:1055E800FB681A85FB685B8D9BB2013B9AB2FB682E
:1055F8005A85FB681B685B6903F00403042B1BD105
:10560800FB681B8D002B17D0FB685B6A1A78FB6858
:105618001B681A61FB685B6A5A1CFB685A62FB6864
:105628001B8D013B9AB2FB681A85FB685B8D9BB2A8
:10563800013B9AB2FB685A85FB681B8D002BAAD1E7
:105648007A69B96AF86804F01FF80346002B0DD090
:10565800FB681B6C042B07D1FB681B681A68FB6886
:105668001B6842F400721A60012316E0FB681B688D
:105678001A68FB681B6842F400721A60FB682022F3
:1056880083F83D20FB68002283F83E20FB68002257
:1056980083F83C20002300E0022318461837BD4653
:1056A80080BD00BF020010000000FFFF80B58CB075
:1056B80002AFF860084611461A4603467B810B463E
:1056C8003B811346FB80FCF75FFC7862FB6893F82C
:1056D8003D30DBB2202B40F008827B6A009319230F
:1056E80001227B49F86803F0B8FE0346002B01D07D
:1056F8000223FBE1FB6893F83C30012B01D1022324
:10570800F4E1FB68012283F83C20FB681B681B68F6
:1057180003F00103012B07D0FB681B681A68FB68BC
:105728001B6842F001021A60FB681B681A68FB6874
:105738001B6822F400621A60FB68222283F83D206D
:10574800FB68402283F83E20FB6800221A64FB684D
:105758003A6B5A62FB68BA8E5A85FB685B8D9AB2BF
:10576800FB681A85FB685B4ADA62F8883A897989A6
:105778007B6A0193BB6B00930346F86803F02CFC2B
:105788000346002B01D00123B0E1FB681B8D002BE1
:1057980013D100233B62FB681B685B693B62FB68B3
:1057A8001B689B693B623B6AFB681B681A68FB685D
:1057B8001B6842F400721A6084E1FB681B8D012BA0
:1057C8001BD1FB681B681A68FB681B6822F480629F
:1057D8001A600023FB61FB681B685B69FB61FB685F
:1057E8001B689B69FB61FB69FB681B681A68FB689F
:1057F8001B6842F400721A6064E1FB681B8D022B7F
:105808001BD1FB681B681A68FB681B6822F480625E
:105818001A60FB681B681A68FB681B6842F4006220
:105828001A600023BB61FB681B685B69BB61FB688E
:105838001B689B69BB61BB6944E100237B61FB6812
:105848001B685B697B61FB681B689B697B617B6983
:1058580038E1FB681B8D032B00F2F180FB681B8D80
:10586800012B23D17A6AB96BF86803F08BFF0346E2
:10587800002B01D0012339E1FB681B681A69FB681A
:105888005B6AD2B21A70FB685B6A5A1CFB685A6280
:10589800FB681B8D013B9AB2FB681A85FB685B8D20
:1058A8009BB2013B9AB2FB685A850BE1FB681B8DE2
:1058B800022B4ED17B6A0093BB6B00220649F86825
:1058C80003F0CBFD0346002B08D001230EE100BFF7
:1058D800020010000000FFFF04000100FB681B68C5
:1058E8001A68FB681B6842F400721A60FB681B6840
:1058F8001A69FB685B6AD2B21A70FB685B6A5A1C49
:10590800FB685A62FB681B8D013B9AB2FB681A85DB
:10591800FB685B8D9BB2013B9AB2FB685A85FB68BA
:105928001B681A69FB685B6AD2B21A70FB685B6A0B
:105938005A1CFB685A62FB681B8D013B9AB2FB68D4
:105948001A85FB685B8D9BB2013B9AB2FB685A854E
:10595800B8E07B6A0093BB6B00226649F86803F0E5
:105968007CFD0346002B01D00123BFE0FB681B68C8
:105978001A68FB681B6822F480621A60FB681B685F
:105988001A69FB685B6AD2B21A70FB685B6A5A1CB8
:10599800FB685A62FB681B8D013B9AB2FB681A854B
:1059A800FB685B8D9BB2013B9AB2FB685A857B6AA8
:1059B8000093BB6B00224F49F86803F04EFD034685
:1059C800002B01D0012391E0FB681B681A68FB6873
:1059D8001B6842F400721A60FB681B681A69FB684E
:1059E8005B6AD2B21A70FB685B6A5A1CFB685A621F
:1059F800FB681B8D013B9AB2FB681A85FB685B8DBF
:105A08009BB2013B9AB2FB685A85FB681B681A690E
:105A1800FB685B6AD2B21A70FB685B6A5A1CFB6847
:105A28005A62FB681B8D013B9AB2FB681A85FB68BA
:105A38005B8D9BB2013B9AB2FB685A8542E07A6A59
:105A4800B96BF86803F09EFE0346002B01D00123D2
:105A58004CE0FB681B681A69FB685B6AD2B21A7073
:105A6800FB685B6A5A1CFB685A62FB681B8D013B2A
:105A78009AB2FB681A85FB685B8D9BB2013B9AB2B0
:105A8800FB685A85FB681B685B6903F00403042BF9
:105A980018D1FB681B681A69FB685B6AD2B21A7076
:105AA800FB685B6A5A1CFB685A62FB681B8D013BEA
:105AB8009AB2FB681A85FB685B8D9BB2013B9AB270
:105AC800FB685A85FB681B8D002B7FF4C2AEFB6810
